:10089C001208F17F531209591208D47F57120959C3
:1008AC001208D47F491209591208D47F54120959DD
:1008BC001208D47F431209591208D47F48120959DF
:0808CC001208D47F2012095923
:1008D400E4FFFEE4FDFC0DBD00010CED64054C706D
:0C08E400F50FBF00010EBE03EABFE8E7FD
:0108F00022E5
:07096C001208D47F307E0069
:100973008FA0C2B6C2B5C2B71208D4D2B71208D478
:03098300C2B722D6
:10092F007F501209591208D47F721209591208D434
:10093F007F651209591208D47F731209591208D40E
:0A094F007F731209591208D47F6566
:100959008FA0C2B6D2B5C2B71208D4D2B71208D482
:03096900C2B722F0
:1008F10012096C12096C12096C1208D47F387E003F
:100901001209731208D47F017E001209731208D4F0
:100911007F0F7E001209731208D47F0C7E0012092A
:0E092100731208D47F807E001209730208D47E
:1008000020901612089C7F311208C912092F120875
:10081000D47F641209591208D420911612089C7FC3
:10082000321208C912092F1208D47F641209591212
:1008300008D420921612089C7F331208C912092F7F
:100840001208D47F641209591208D43090B2309142
:10085000AF3092AC1208F17F201208C91208CF7F86
:10086000571209591208D47F451209591208D47F2A
:100870004C1209591208D47F431209591208D47F27
:100880004F1209591208D47F4D1209591208D47F0A
:0C089000451208C97F201208C9020800A8
:030000000209866C
:0C098600787FE4F6D8FD758107020800B8
:00000001FF
